:020000040800F2
:1000000000280020690F00080D0F0008130F0008DA
:10001000190F00081F0F0008250F0008000000003E
:100020000000000000000000000000002B0F00088E
:10003000370F000800000000430F00084F0F0008B2
:10004000B10F0008B10F0008B10F0008B10F000890
:10005000B10F0008B10F0008B10F0008B10F000880
:10006000B10F0008B10F0008B10F0008B10F000870
:10007000B10F0008B10F0008B10F0008B10F000860
:10008000B10F0008B10F0008B10F0008B10F000850
:10009000B10F0008B10F0008B10F0008B10F000840
:1000A000B10F0008B10F0008B10F0008B10F000830
:1000B000B10F0008B10F000800000000B10F0008E8
:1000C000B10F00080000000000000000B10F0008A0
:1000D00000000000B10F0008B10F00080000000090
:1000E000B10F0008B10F0008B10F000800000000B8
:1000F0000000000000000000000000000000000000
:0C01000000000000000000005FF808F1A3
:10010C0010B5054C237833B9044B13B10448AFF345
:10011C0000800123237010BD180000200000000097
:10012C001C1E000808B5034B1BB103490348AFF371
:10013C00008008BD000000001C0000201C1E0008F0
:10014C0080B582B000AF00F087FF786000220121FB
:10015C00A14801F024FA08219F4801F009FA03464E
:10016C00002B40D100BF08219B4801F001FA034647
:10017C00002BF8D0994B1B78012B1ED1984B1B6888
:10018C007A68D31AB3F5FA7F06D8964B1B78013BE5
:10019C00954A0A21D15420E0924B1B78032B1CD892
:1001AC00904B1B781A46904B012199548D4B1B7820
:1001BC000133DAB28B4B1A700FE08A4B1B78032B8E
:1001CC000BD8884B1B781A46874B01219954854BC9
:1001DC001B780133DAB2834B1A70804B01221A70F0
:1001EC007F4A7B68136010217B4801F0C1F90346FC
:1001FC00002B40D100BF1021774801F0B9F903461C
:10020C00002BF8D0754B1B78042B1ED1744B1B683C
:10021C007A68D31AB3F5FA7F06D8724B1B78013B78
:10022C00714A0D21D15420E06E4B1B78032B1CD846
:10023C006C4B1B781A466C4B04219954694B1B78F8
:10024C000133DAB2674B1A700FE0664B1B78032B45
:10025C000BD8644B1B781A46634B04219954614BA1
:10026C001B780133DAB25F4B1A705C4B04221A70A4
:10027C005B4A7B6813602021574801F079F90346EB
:10028C00002B17D100BF2021534801F071F9034610
:10029C00002BF8D0534B1B78032B0BD8514B1B78EE
:1002AC001A46514B072199544E4B1B780133DAB245
:1002BC004C4B1A704021484801F05AF90346002B68
:1002CC0017D100BF4021444801F052F90346002BDE
:1002DC00F8D0444B1B78002B0BD0424B1B78013BC6
:1002EC00DAB2404B1A703F4B1B781A463E4B112129
:1002FC00995401220121384801F051F900220221C0
:10030C00354801F04CF90821334801F031F9034626
:10031C00002B40D100BF08212F4801F029F90346DA
:10032C00002BF8D02D4B1B78022B1ED12C4B1B68AD
:10033C007A68D31AB3F5FA7F06D82A4B1B78013B9F
:10034C00294A0B21D15420E0264B1B78032B1CD8B7
:10035C00244B1B781A46244B02219954214B1B78B1
:10036C000133DAB21F4B1A700FE01E4B1B78032BB4
:10037C000BD81C4B1B781A461B4B02219954194B5A
:10038C001B780133DAB2174B1A70144B02221A7015
:10039C00134A7B68136010210F4801F0E9F80346FB
:1003AC00002B4AD100BF10210B4801F0E1F80346A5
:1003BC00002BF8D0094B1B78052B28D1084B1B6858
:1003CC007A68D31AB3F5FA7F10D8064B1B78013B29
:1003DC00054A0E21D1542AE0000C014008000020EF
:1003EC003800002034000020000000209B4B1B78BC
:1003FC00032B1CD8994B1B781A46994B0521995401
:10040C00964B1B780133DAB2944B1A700FE0934B76
:10041C001B78032B0BD8914B1B781A46904B05215C
:10042C0099548E4B1B780133DAB28C4B1A708D4B6E
:10043C0005221A708C4A7B68136020218B4801F0CE
:10044C0097F80346002B17D100BF2021874801F0F5
:10045C008FF80346002BF8D0804B1B78032B0BD85E
:10046C007E4B1B781A467E4B082199547B4B1B788C
:10047C000133DAB2794B1A7040217C4801F078F8DC
:10048C000346002B17D100BF4021784801F070F8CB
:10049C000346002BF8D0714B1B78032B0BD86F4BFA
:1004AC001B781A466E4B002199546C4B1B78013308
:1004BC00DAB26A4B1A70012202216C4801F06FF813
:1004CC0000220421694801F06AF80821674801F00C
:1004DC004FF80346002B40D100BF0821634801F0C0
:1004EC0047F80346002BF8D05E4B1B78032B1ED12C
:1004FC005D4B1B687A68D31AB3F5FA7F06D8574B55
:10050C001B78013B564A0C21D15420E0534B1B78ED
:10051C00032B1CD8514B1B781A46514B0321995471
:10052C004E4B1B780133DAB24C4B1A700FE04B4B2D
:10053C001B78032B0BD8494B1B781A46484B0321CD
:10054C009954464B1B780133DAB2444B1A70454B25
:10055C0003221A70444A7B6813601021434801F04F
:10056C0007F80346002B40D100BF10213F4800F094
:10057C00FFFF0346002BF8D03A4B1B78062B1ED1FD
:10058C00394B1B687A68D31AB3F5FA7F06D8334B0C
:10059C001B78013B324A0F21D15420E02F4B1B78A2
:1005AC00032B1CD82D4B1B781A462D4B0621995426
:1005BC002A4B1B780133DAB2284B1A700FE0274B09
:1005CC001B78032B0BD8254B1B781A46244B062182
:1005DC009954224B1B780133DAB2204B1A70214B01
:1005EC0006221A70204A7B68136020211F4800F0F5
:1005FC00BFFF0346002B17D100BF20211B4800F082
:10060C00B7FF0346002BF8D0144B1B78032B0BD8E9
:10061C00124B1B781A46124B092199540F4B1B781D
:10062C000133DAB20D4B1A704021104800F0A0FFD4
:10063C000346002B09D100BF40210C4800F098FF65
:10064C000346002BF8D000F0CDFA01220421074814
:10065C0000F0A5FF00BF0837BD4680BD3400002068
:10066C00000000200800002038000020000C014091
:10067C0080B582B000AF0346FB71FB790F2B00F203
:10068C00538201A252F823F0D5060008EF060008A9
:10069C00070700082107000871070008C1070008B8
:1006AC001108000861080008B108000801090008D9
:1006BC0051090008A1090008F5090008450A0008BD
:1006CC00950A0008E50A000800224FF4FC61C548B1
:1006DC0000F065FF01224FF40061C24800F05FFF9B
:1006EC0029E201224FF47E61BE4800F058FF00223F
:1006FC00C021BC4800F053FF1DE200224FF43661CC
:10070C00B84800F04CFF01224FF49061B54800F05E
:10071C0046FF10E200222021B24800F040FF0022E8
:10072C004021B04800F03BFF00228021AD4800F092
:10073C0036FF00224FF48071AA4800F030FF0122EE
:10074C004FF40071A74800F02AFF01224FF480619A
:10075C00A44800F024FF00224FF40061A14800F0EF
:10076C001EFFE8E1012220219E4800F018FF002224
:10077C0040219C4800F013FF00228021994800F092
:10078C000EFF01224FF48071964800F008FF012201
:10079C004FF40071934800F002FF00224FF4806187
:1007AC00904800F0FCFE00224FF400618D4800F0F0
:1007BC00F6FEC0E1002220218A4800F0F0FE012262
:1007CC004021884800F0EBFE00228021854800F093
:1007DC00E6FE00224FF48071824800F0E0FE012218
:1007EC004FF400717F4800F0DAFE00224FF4806174
:1007FC007C4800F0D4FE00224FF40061794800F0F0
:10080C00CEFE98E100222021764800F0C8FE01229D
:10081C004021744800F0C3FE00228021714800F092
:10082C00BEFE00224FF480716E4800F0B8FE00222C
:10083C004FF400716B4800F0B2FE00224FF480615F
:10084C00684800F0ACFE00224FF40061654800F0EF
:10085C00A6FE70E100222021624800F0A0FE0022DA
:10086C004021604800F09BFE002280215D4800F092
:10087C0096FE01224FF480715A4800F090FE01223E
:10088C004FF40071574800F08AFE01224FF480614A
:10089C00544800F084FE01224FF40061514800F0EE
:1008AC007EFE48E1002220214E4800F078FE002216
:1008BC0040214C4800F073FE00228021494800F092
:1008CC006EFE00224FF48071464800F068FE002254
:1008DC004FF40071434800F062FE00224FF4806137
:1008EC00404800F05CFE00224FF400613D4800F0EF
:1008FC0056FE20E1002220213A4800F050FE002252
:10090C004021384800F04BFE00228021354800F091
:10091C0046FE00224FF48071324800F040FE012266
:10092C004FF400712F4800F03AFE00224FF4806122
:10093C002C4800F034FE00224FF40061294800F0EE
:10094C002EFEF8E000222021264800F028FE00228E
:10095C004021244800F023FE00228021214800F091
:10096C001EFE01224FF480711E4800F018FE00227A
:10097C004FF400711B4800F012FE00224FF480610E
:10098C00184800F00CFE00224FF40061154800F0EE
:10099C0006FED0E001222021124800F000FE0122C8
:1009AC004021104800F0FBFD002280210D4800F092
:1009BC00F6FD00224FF480710A4800F0F0FD002291
:1009CC004FF40071074800F0EAFD00224FF48061FB
:1009DC00044800F0E4FD00224FF40061014800F0EF
:1009EC00DEFDA8E00008014000222021544800F060
:1009FC00D6FD01224021524800F0D1FD0122802178
:100A0C004F4800F0CCFD00224FF480714C4800F0B0
:100A1C00C6FD00224FF40071494800F0C0FD0022D1
:100A2C004FF48061464800F0BAFD01224FF400619A
:100A3C00434800F0B4FD7EE001222021404800F044
:100A4C00AEFD002240213E4800F0A9FD002280218D
:100A5C003B4800F0A4FD00224FF48071384800F0B0
:100A6C009EFD00224FF40071354800F098FD0122E4
:100A7C004FF48061324800F092FD00224FF4006187
:100A8C002F4800F08CFD56E0002220212C4800F06D
:100A9C0086FD012240212A4800F081FD012280219F
:100AAC00274800F07CFD00224FF48071244800F0B0
:100ABC0076FD00224FF40071214800F070FD0022F9
:100ACC004FF480611E4800F06AFD00224FF4006173
:100ADC001B4800F064FD2EE000222021184800F095
:100AEC005EFD01224021164800F059FD01228021B3
:100AFC00134800F054FD01224FF48071104800F0AF
:100B0C004EFD00224FF400710D4800F048FD00220C
:100B1C004FF480610A4800F042FD00224FF400615E
:100B2C00074800F03CFD06E001224FF4FC6104484C
:100B3C0000F035FD00BF00BF0837BD4680BD00BFCB
:100B4C000008014080B500AF01220121234800F0CC
:100B5C0026FD234B1B781846FFF78AFD052000F075
:100B6C0085FA002201211D4800F019FD0122022105
:100B7C001A4800F014FD1A4B5B781846FFF778FD05
:100B8C00052000F073FA00220221144800F007FD42
:100B9C0001220421114800F002FD114B9B781846EC
:100BAC00FFF766FD052000F061FA002204210B48D6
:100BBC0000F0F5FC01220821084800F0F0FC084B7D
:100BCC00DB781846FFF754FD052000F04FFA0022A1
:100BDC000821024800F0E3FC00BF80BD0008014082
:100BEC000000002080B584B000AF3B4B1B78022B7B
:100BFC0065D80123FB600023BB600FE0374ABB685C
:100C0C0013441A783649BB680B441B789A4202D0BD
:100C1C000023FB6005E0BB680133BB60BB68032BA2
:100C2C00ECDDFB68002B26D000237B6007E02B4A11
:100C3C007B6813440B221A707B6801337B607B68E2
:100C4C00032BF4DD274B00221A70234B00221A7061
:100C5C0001224FF40051244800F0A1FC00224FF473
:100C6C008051214800F09BFC00224FF400611E488B
:100C7C0000F095FC2BE000233B6007E0174A3B6833
:100C8C00134411221A703B6801333B603B68032B01
:100C9C00F4DD144B00221A700F4B1B780133DAB2BF
:100CAC000D4B1A7001224FF480510F4800F077FC65
:100CBC0000224FF400510C4800F071FC07E04FF497
:100CCC000061094800F083FCC82000F0CFF900BF98
:100CDC001037BD4680BD00BF35000020000000204D
:100CEC000400002034000020000C014080B500AF4F
:100CFC0000F05AF900F007F800F040F8FFF720FA7E
:100D0C00FFF720FFFAE780B590B000AF07F11803AA
:100D1C0028220021184601F073F83B1D00221A60AE
:100D2C005A609A60DA601A610223BB610123BB62CC
:100D3C001023FB6200237B6307F11803184600F0B5
:100D4C005FFC0346002B01D000F0A2F80F237B6060
:100D5C000023BB600023FB6000233B6100237B610D
:100D6C003B1D0021184600F0CBFE0346002B01D0A2
:100D7C0000F08EF800BF4037BD4680BD80B588B00E
:100D8C0000AF07F1100300221A605A609A60DA6013
:100D9C003B4B9B693A4A43F010039361384B9B6978
:100DAC0003F01003FB60FB68354B9B69344A43F03E
:100DBC0004039361324B9B6903F00403BB60BB6873
:100DCC002F4B9B692E4A43F0080393612C4B9B6974
:100DDC0003F008037B607B6800224FF40051294824
:100DEC0000F0DDFB002241F6EF71274800F0D7FB45
:100DFC0001220721254800F0D2FB00224FF460515C
:100E0C00224800F0CCFB4FF400533B6101237B6183
:100E1C000023BB610223FB6107F11003194619483B
:100E2C0000F02CFA41F6EF733B6101237B61002348
:100E3C00BB610223FB6107F110031946124800F055
:100E4C001DFA43F607033B6101237B610023BB6161
:100E5C000223FB6107F1100319460C4800F00EFA4F
:100E6C0078233B6100237B610123BB6107F11003F5
:100E7C001946064800F002FA00BF2037BD4680BD77
:100E8C00001002400010014000080140000C01401D
:100E9C0080B400AF72B600BFFEE7000080B485B02E
:100EAC0000AF154B9B69144A43F001039361124B3D
:100EBC009B6903F00103BB60BB680F4BDB690E4AF7
:100ECC0043F08053D3610C4BDB6903F080537B60A0
:100EDC007B680A4B5B68FB60FB6823F0E063FB609C
:100EEC00FB6843F00073FB60044AFB68536000BF6F
:100EFC001437BD4680BC7047001002400000014012
:100F0C0080B400AFFEE780B400AFFEE780B400AF62
:100F1C00FEE780B400AFFEE780B400AFFEE780B41C
:100F2C0000AF00BFBD4680BC704780B400AF00BFAF
:100F3C00BD4680BC704780B400AF00BFBD4680BCCE
:100F4C00704780B500AF00F075F800BF80BD80B46D
:100F5C0000AF00BFBD4680BC70470000FFF7F7FF35
:100F6C000B480C490C4A002302E0D458C4500433FB
:100F7C00C4188C42F9D3094A094C002301E01360D0
:100F8C000432A242FBD300F017FFFFF7AFFE70470D
:100F9C000000002018000020601E0008180000202F
:100FAC0040000020FEE7000080B500AF084B1B6836
:100FBC00074A43F010031360032000F02BF90F20B5
:100FCC0000F008F8FFF76AFF0023184680BD00BF49
:100FDC000020024080B582B000AF7860124B1A68D6
:100FEC00124B1B7819464FF47A73B3FBF1F3B2FB37
:100FFC00F3F3184600F035F90346002B01D001231A
:10100C000EE07B680F2B0AD8002279684FF0FF3076
:10101C0000F00BF9064A7B681360002300E0012303
:10102C0018460837BD4680BD0C0000201400002077
:10103C001000002080B400AF054B1B781A46054BFE
:10104C001B681344034A136000BFBD4680BC704745
:10105C00140000203C00002080B400AF024B1B6841
:10106C001846BD4680BC70473C00002080B584B05B
:10107C0000AF7860FFF7F0FFB8607B68FB60FB683F
:10108C00B3F1FF3F05D00A4B1B781A46FB6813449B
:10109C00FB6000BFFFF7E0FF0246BB68D31AFA689B
:1010AC009A42F7D800BF00BF1037BD4680BD00BFC5
:1010BC001400002080B485B000AF78607B6803F02A
:1010CC000703FB600C4BDB68BB60BA684FF6FF0391
:1010DC001340BB60FB681A02BB68134343F0BF6349
:1010EC0043F40033BB60044ABB68D36000BF1437C1
:1010FC00BD4680BC704700BF00ED00E080B400AF7F
:10110C00044BDB681B0A03F007031846BD4680BC82
:10111C00704700BF00ED00E080B483B000AF034621
:10112C003960FB7197F90730002B0ADB3B68DAB2A8
:10113C000C4997F907301201D2B20B4483F8002303
:10114C000AE03B68DAB20849FB7903F00F03043B71
:10115C001201D2B20B441A7600BF0C37BD4680BCCC
:10116C00704700BF00E100E000ED00E080B489B002
:10117C0000AFF860B9607A60FB6803F00703FB61AD
:10118C00FB69C3F10703042B28BF0423BB61FB6974
:10119C000433062B02D9FB69033B00E000237B617F
:1011AC004FF0FF32BB6902FA03F3DA43BB681A4013
:1011BC007B699A404FF0FF317B6901FA03F3D94305
:1011CC007B680B40134318462437BD4680BC7047E0
:1011DC0080B582B000AF78607B68013BB3F1807F53
:1011EC0001D301230FE00A4A7B68013B53600F21B6
:1011FC004FF0FF30FFF790FF054B00229A60044B35
:10120C0007221A60002318460837BD4680BD00BF70
:10121C0010E000E080B582B000AF78607868FFF72E
:10122C0049FF00BF0837BD4680BD80B586B000AF12
:10123C000346B9607A60FB7300237B61FFF75EFFA6
:10124C0078617A68B9687869FFF790FF024697F978
:10125C000F3011461846FFF75FFF00BF1837BD4629
:10126C0080BD80B582B000AF78607868FFF7B0FFC2
:10127C00034618460837BD4680BD000080B48BB0CD
:10128C0000AF7860396000237B6200233B6248E149
:10129C0001227B6A02FA03F3FB613B681B68FA6963
:1012AC001340BB61BA69FB699A4240F037813B68D5
:1012BC005B68A34A93425ED0A14A934275D8A14A77
:1012CC00934258D09F4A93426FD89F4A934252D030
:1012DC009D4A934269D89D4A93424CD09B4A934273
:1012EC0063D89B4A934246D0994A93425DD8122BBD
:1012FC002AD8122B59D801A252F823F083130008D4
:10130C005D1300086F130008B1130008B713000831
:10131C00B7130008B7130008B7130008B713000879
:10132C00B7130008B7130008B7130008B713000869
:10133C00B7130008B7130008B7130008B713000859
:10134C006513000879130008824A934213D02CE0ED
:10135C003B68DB683B6229E03B68DB6804333B623B
:10136C0024E03B68DB6808333B621FE03B68DB68CA
:10137C000C333B621AE03B689B68002B02D10423C0
:10138C003B6213E03B689B68012B05D108233B6251
:10139C007B68FA691A6109E008233B627B68FA6989
:1013AC005A6103E000233B6200E000BFBB69FF2BE6
:1013BC0001D87B6801E07B6804337B61BB69FF2B40
:1013CC0002D87B6A9B0002E07B6A083B9B003B6176
:1013DC007B691A680F213B6901FA03F3DB431A405E
:1013EC00396A3B6901FA03F31A437B691A603B685B
:1013FC005B6803F08053002B00F09080564B9B6988
:10140C00554A43F001039361534B9B6903F001036D
:10141C00BB60BB68514A7B6A9B08023352F823308D
:10142C00FB607B6A03F003039B000F2202FA03F3B9
:10143C00DB43FA681340FB607B68494A93420DD04A
:10144C007B68484A934207D07B68474A934201D154
:10145C00022304E0032302E0012300E000237A6A64
:10146C0002F0030292009340FA681343FB603B497D
:10147C007B6A9B080233FA6841F823203B685B685F
:10148C0003F48013002B06D0384B9A683749BB699C
:10149C0013438B6006E0354B9A68BB69DB433349D9
:1014AC0013408B603B685B6803F40013002B06D081
:1014BC002E4BDA682D49BB691343CB6006E02B4BEE
:1014CC00DA68BB69DB4329491340CB603B685B6836
:1014DC0003F40033002B06D0244B5A682349BB6914
:1014EC0013434B6006E0214B5A68BB69DB431F4931
:1014FC0013404B603B685B6803F48033002B06D0D1
:10150C001A4B1A681949BB6913430B6006E0174B59
:10151C001A68BB69DB43154913400B607B6A0133C6
:10152C007B623B681A687B6A22FA03F3002B7FF418
:10153C00AFAE00BF00BF2C37BD4680BC704700BFAC
:10154C0000003210000031100000221000002110A9
:10155C0000001210000011100010024000000140A9
:10156C0000080140000C0140001001400004014043
:10157C0080B485B000AF78600B467B807B689A683E
:10158C007B881340002B02D00123FB7301E0002366
:10159C00FB73FB7B18461437BD4680BC704780B488
:1015AC0083B000AF78600B467B8013467B707B78F2
:1015BC00002B03D07A887B681A6103E07B881A04BD
:1015CC007B681A6100BF0C37BD4680BC704780B485
:1015DC0085B000AF78600B467B807B68DB68FB6076
:1015EC007A88FB6813401A04FB68D9437B880B404C
:1015FC001A437B681A6100BF1437BD4680BC704724
:10160C0080B586B000AF78607B68002B01D10123D8
:10161C006CE27B681B6803F00103002B00F08780F1
:10162C00924B5B6803F00C03042B0CD08F4B5B6864
:10163C0003F00C03082B12D18C4B5B6803F4803342
:10164C00B3F5803F0BD1894B1B6803F40033002B9F
:10165C006CD07B685B68002B68D1012346E27B6809
:10166C005B68B3F5803F06D1804B1B687F4A43F41F
:10167C00803313602EE07B685B68002B0CD17B4BB6
:10168C001B687A4A23F480331360784B1B68774AC3
:10169C0023F4802313601DE07B685B68B3F5A02FF7
:1016AC000CD1724B1B68714A43F4802313606F4B4F
:1016BC001B686E4A43F4803313600BE06B4B1B6862
:1016CC006A4A23F480331360684B1B68674A23F41F
:1016DC00802313607B685B68002B13D0FFF7BCFC86
:1016EC00386108E0FFF7B8FC02463B69D31A642B5B
:1016FC0001D90323FAE15D4B1B6803F40033002B83
:10170C00F0D014E0FFF7A8FC386108E0FFF7A4FC68
:10171C0002463B69D31A642B01D90323E6E1534BF0
:10172C001B6803F40033002BF0D100E000BF7B6892
:10173C001B6803F00203002B63D04C4B5B6803F077
:10174C000C03002B0BD0494B5B6803F00C03082BEC
:10175C001CD1464B5B6803F48033002B16D1434BF2
:10176C001B6803F00203002B05D07B681B69012B5F
:10177C0001D00123BAE13D4B1B6823F0F8027B68D2
:10178C005B69DB00394913430B603AE07B681B69EA
:10179C00002B20D0364B01221A60FFF75DFC38611C
:1017AC0008E0FFF759FC02463B69D31A022B01D91A
:1017BC0003239BE12D4B1B6803F00203002BF0D09D
:1017CC002A4B1B6823F0F8027B685B69DB00274916
:1017DC0013430B6015E0264B00221A60FFF73CFC0C
:1017EC00386108E0FFF738FC02463B69D31A022B3C
:1017FC0001D903237AE11D4B1B6803F00203002B74
:10180C00F0D17B681B6803F00803002B3AD07B688F
:10181C009B69002B19D0174B01221A60FFF71CFC97
:10182C00386108E0FFF718FC02463B69D31A022B1B
:10183C0001D903235AE10D4B5B6A03F00203002B21
:10184C00F0D0012000F09AFA1CE00A4B00221A603A
:10185C00FFF702FC38610FE0FFF7FEFB02463B6925
:10186C00D31A022B08D9032340E100BF0010024019
:10187C0000004242800442429E4B5B6A03F002032A
:10188C00002BE9D17B681B6803F00403002B00F0EC
:10189C00A6800023FB75974BDB6903F08053002B6C
:1018AC000DD1944BDB69934A43F08053D361914B38
:1018BC00DB6903F08053BB60BB680123FB758E4B67
:1018CC001B6803F48073002B18D18B4B1B688A4A5E
:1018DC0043F480731360FFF7BFFB386108E0FFF738
:1018EC00BBFB02463B69D31A642B01D90323FDE0F1
:1018FC00814B1B6803F48073002BF0D07B68DB6892
:10190C00012B06D17B4B1B6A7A4A43F0010313620D
:10191C002DE07B68DB68002B0CD1764B1B6A754A7B
:10192C0023F001031362734B1B6A724A23F0040306
:10193C0013621CE07B68DB68052B0CD16D4B1B6ABA
:10194C006C4A43F0040313626A4B1B6A694A43F006
:10195C00010313620BE0674B1B6A664A23F0010319
:10196C001362644B1B6A634A23F0040313627B68A3
:10197C00DB68002B15D0FFF76FFB38610AE0FFF72F
:10198C006BFB02463B69D31A41F28832934201D970
:10199C000323ABE0574B1B6A03F00203002BEED082
:1019AC0014E0FFF759FB38610AE0FFF755FB0246DC
:1019BC003B69D31A41F28832934201D9032395E053
:1019CC004C4B1B6A03F00203002BEED1FB7D012B69
:1019DC0005D1484BDB69474A23F08053D3617B68C0
:1019EC00DB69002B00F08180424B5B6803F00C0339
:1019FC00082B61D07B68DB69022B46D13F4B002260
:101A0C001A60FFF729FB386108E0FFF725FB024657
:101A1C003B69D31A022B01D9032367E0354B1B68B2
:101A2C0003F00073002BF0D17B681B6AB3F5803F89
:101A3C0008D1304B5B6823F400327B689B682D49DE
:101A4C0013434B602B4B5B6823F474127B68196A4D
:101A5C007B685B6A0B43274913434B60274B01227E
:101A6C001A60FFF7F9FA386108E0FFF7F5FA024659
:101A7C003B69D31A022B01D9032337E01D4B1B689A
:101A8C0003F00073002BF0D02FE01C4B00221A60E7
:101A9C00FFF7E2FA386108E0FFF7DEFA02463B692D
:101AAC00D31A022B01D9032320E0124B1B6803F03D
:101ABC000073002BF0D118E07B68DB69012B01D19E
:101ACC00012313E00B4B5B68FB60FB6803F4803273
:101ADC007B681B6A9A4206D1FB6803F470127B6820
:101AEC005B6A9A4201D0012300E0002318461837A4
:101AFC00BD4680BD001002400070004060004242B4
:101B0C0080B584B000AF786039607B68002B01D160
:101B1C000123D0E06A4B1B6803F007033A689A4232
:101B2C0010D9674B1B6823F0070265493B681343C8
:101B3C000B60634B1B6803F007033A689A4201D0B1
:101B4C000123B8E07B681B6803F00203002B20D054
:101B5C007B681B6803F00403002B05D0594B5B68B2
:101B6C00584A43F4E06353607B681B6803F0080336
:101B7C00002B05D0534B5B68524A43F460535360BF
:101B8C00504B5B6823F0F0027B689B684D49134314
:101B9C004B607B681B6803F00103002B40D07B6813
:101BAC005B68012B07D1474B1B6803F40033002BF8
:101BBC0015D101237FE07B685B68022B07D1414B79
:101BCC001B6803F00073002B09D1012373E03D4B1C
:101BDC001B6803F00203002B01D101236BE0394B8E
:101BEC005B6823F003027B685B68364913434B60E8
:101BFC00FFF732FAF8600AE0FFF72EFA0246FB68AC
:101C0C00D31A41F28832934201D9032353E02D4B6E
:101C1C005B6803F00C027B685B689B009A42EBD11B
:101C2C00274B1B6803F007033A689A4210D2244BE7
:101C3C001B6823F0070222493B6813430B60204BBF
:101C4C001B6803F007033A689A4201D0012332E083
:101C5C007B681B6803F00403002B08D0194B5B68EE
:101C6C0023F4E0627B68DB68164913434B607B68A6
:101C7C001B6803F00803002B09D0124B5B6823F49C
:101C8C0060527B681B69DB000E4913434B6000F00C
:101C9C0021F802460B4B5B681B0903F00F030A4942
:101CAC00CB5C22FA03F3094A1360094B1B681846F4
:101CBC00FFF790F9002318461037BD4680BD00BFD2
:101CCC000020024000100240341E00080C000020CE
:101CDC001000002080B487B000AF0023FB6000230D
:101CEC00BB6000237B6100237B6000233B611E4BA8
:101CFC005B68FB60FB6803F00C03042B02D0082B21
:101D0C0003D027E0194B3B6127E0FB689B0C03F0E9
:101D1C000F03174AD35C7B60FB6803F48033002B02
:101D2C0010D0114B5B685B0C03F00103114AD35CC0
:101D3C00BB607B680D4A02FB03F2BB68B2FBF3F39A
:101D4C007B6104E07B680C4A02FB03F37B617B69DB
:101D5C003B6102E0054B3B6100BF3B6918461C37F9
:101D6C00BD4680BC704700BF0010024000127A00D4
:101D7C00441E0008541E000800093D0080B485B0C4
:101D8C0000AF78600A4B1B680A4AA2FB03235B0A6C
:101D9C007A6802FB03F3FB6000BFFB685A1EFA6013
:101DAC00002BF9D100BF00BF1437BD4680BC704773
:101DBC000C000020D34D621070B500260C4D0D4C5C
:101DCC00641BA410A64209D100F022F800260A4D8B
:101DDC000A4C641BA410A64205D170BD55F8043BF7
:101DEC0098470136EEE755F8043B98470136F2E781
:101DFC00581E0008581E0008581E00085C1E0008DB
:101E0C0003460244934200D1704703F8011BF9E7E3
:101E1C00F8B500BFF8BC08BC9E467047F8B500BFCB
:081E2C00F8BC08BC9E4670479B
:101E34000000000000000000010203040607080976
:101E440002030405060708090A0B0C0D0E0F1010F7
:041E54000102000087
:041E5800310100084C
:041E5C000D0100086C
:101E600011111111010101011100000000127A008D
:081E7000100000000100000059
:0400000508000F6977
:00000001FF
